:03000000020006F5
:03005F0002000399
:030003000200A454
:20006200AE82AF837C0A7D08EC24FFFAED34FFFB8A048B05EA4B70F0EE24FFFCEF34FFFD0E
:200082008C068D07EC4D70DC225391FB4392045391F74392085391EF4392107530327531EC
:2000A200002212008BC292853082853183120062D292C293853082853183120062D293C283
:2000C20094853082853183120062D294153074FFB530021531C3E4953074808531F063F002
:0D00E2008095F040C075303275310080B857
:06003500E478FFF6D8FD9F
:200013007900E94400601B7A009000F3780175A000E493F2A308B8000205A0D9F4DAF275A0
:02003300A0FF2C
:20003B007800E84400600A790175A000E4F309D8FC7800E84400600C7900900001E4F0A3C3
:04005B00D8FCD9FAFA
:0D0006007581311200EFE5826003020003F6
:0400EF0075820022F4
:00000001FF
