:03000000020006F5
:03005F0002000399
:0300030002008177
:200062005391FB4392045391F74392085391EF439210C292D293C29475AA3175AB80221223
:0F00820000627587020000B292B293B29480F3CD
:06003500E478FFF6D8FD9F
:200013007900E94400601B7A00900095780175A000E493F2A308B8000205A0D9F4DAF275FE
:02003300A0FF2C
:20003B007800E84400600A790175A000E4F309D8FC7800E84400600C7900900001E4F0A3C3
:04005B00D8FCD9FAFA
:0D000600758107120091E58260030200037E
:040091007582002252
:00000001FF
