:0600000002000902008469
:0300620002000693
:030006000200995C
:200065005391FB4392045391F74392085391EF439210C292D293C294C288D2A8D2AF22C01D
:1E008500E0C0D0B292B293B294A2B2E433F530D0D0D0E032120065758702000080F91E
:06003800E478FFF6D8FD9C
:200016007900E94400601B7A009000A7780175A000E493F2A308B8000205A0D9F4DAF275E9
:02003600A0FF29
:20003E007800E84400600A790175A000E4F309D8FC7800E84400600C7900900001E4F0A3C0
:04005E00D8FCD9FAF7
:0D0009007581301200A3E58260030200063D
:0400A3007582002240
:00000001FF
